:100000000C9434000C9429010C9402010C945100BE
:100010000C9451000C9451000C9451000C9451001C
:100020000C9451000C9451000C9451000C9451000C
:100030000C9451000C9451000C9451000C945100FC
:100040000C94B8000C9451000C9451000C94510085
:100050000C9451000C9451000C9451000C945100DC
:100060000C9451000C94510011241FBECFEFD8E026
:10007000DEBFCDBF11E0A0E0B1E0E8EEF6E002C0E7
:1000800005900D92AE30B107D9F721E0AEE0B1E0B6
:1000900001C01D92AB32B207E1F70E9450010C94EF
:1000A00072030C94000081E08093260108952FB71D
:1000B000F894609113017091140180911501909151
:1000C00016012FBF0895089590911F01981701F10F
:1000D00020911E01211105C0981778F421E020938A
:1000E000050121E020931E01981750F4209118017A
:1000F000281730F480931801089510920501F1CF6C
:10010000891730F490910401891710F48093040149
:1001100008950F931F936017710764F40417150770
:100120004CF490912501292B209325011F910F91CB
:100130000C9464001F910F91089590912501292F2F
:100140002823A9F020911F01261311C0809589232F
:100150008093250181E0809320010E9457006093E5
:10016000210170932201809323019093240108952B
:100170001F920F920FB60F9211242F933F938F93DC
:100180009F93AF93BF938091130190911401A0911D
:100190001501B09116013091120123E0230F2D3784
:1001A00058F50196A11DB11D2093120180931301F2
:1001B00090931401A0931501B093160180910E0144
:1001C00090910F01A0911001B09111010196A11D14
:1001D000B11D80930E0190930F01A0931001B09375
:1001E0001101BF91AF919F918F913F912F910F90EE
:1001F0000FBE0F901F90189526E8230F0296A11DA1
:10020000B11DD2CF1F920F920FB60F9211242F93D0
:100210003F934F935F936F937F938F939F93AF938E
:10022000BF93EF93FF93E0910201F09103010995D1
:10023000FF91EF91BF91AF919F918F917F916F91BE
:100240005F914F913F912F910F900FBE0F901F9094
:1002500018951F920F920FB60F9211242F933F9370
:100260004F935F936F937F938F939F93AF93BF93BE
:10027000EF93FF93E0910001F09101010995FF9147
:10028000EF91BF91AF919F918F917F916F915F910E
:100290004F913F912F910F900FBE0F901F90189587
:1002A000789484B5826084BD84B5816084BD85B551
:1002B000826085BD85B5816085BD80916E0081605D
:1002C00080936E0010928100809181008260809303
:1002D0008100809181008160809381008091800005
:1002E0008160809380008091B10084608093B10030
:1002F0008091B00081608093B00080917A0084602A
:1003000080937A0080917A00826080937A00809155
:100310007A00816080937A0080917A00806880936F
:100320007A001092C10081E084B985B18E6385B9ED
:1003300089E18AB98BB1826E8BB987E087B983E591
:1003400090E09093010180930001809169008360A7
:1003500080936900E89ACC24C394D12C93E4A92E0D
:1003600020E0E22E20E0F22EBB24B39439E0932E5D
:100370000E94570000912701109128012091290126
:1003800030912A01601B710B820B930B693C710544
:100390008105910508F4A8C0809126018111A4C0AF
:1003A0000E945700609327017093280180932901D0
:1003B00090932A01E6E0F1E0DF0180E09D919770E3
:1003C000843008F04AC129B130E002C03595279544
:1003D0009A95E2F720FD4EC180911701882309F418
:1003E00057C1289880E090819770843008F047C109
:1003F00029B130E002C0359527959A95E2F720FDA6
:1004000042C1289A9081843008F03BC129B130E084
:10041000977002C0359527959A95E2F720FF33C172
:10042000109217012898909125019601082E01C07D
:10043000220F0A94EAF7922B90932501823311F050
:100440000E946400A0927C0080917A008064809376
:100450007A0080917A0086FDFCCF80917800C0916F
:100460007900DC2FC82F8E0121E044EF51E060E9D4
:1004700071E080E00E94890022E040E951E06CE2F6
:1004800071E081E00E94890024E04CE251E068ECD8
:1004900070E082E00E94890028E048EC50E066E9C4
:1004A00070E083E00E94890020E146E950E068E7BF
:1004B00070E084E00E94890020E248E750E064E6B2
:1004C00070E085E00E94890020E444E650E066E4A4
:1004D00070E086E00E94890020E846E450E070E089
:1004E00060E087E00E94890080912601882321F046
:1004F0008BB1877E8BB9589A0E94570000912101D9
:10050000109122012091230130912401601B710B75
:10051000820B930B693E73408105910528F0809111
:1005200020018111109220014A9903C010922601E6
:10053000589898B180911F018850892388B988B153
:1005400090911F01892B88B980912501882309F496
:1005500061C08091200181115DC0809126018111CF
:1005600059C080911E01882309F454C00E9457008D
:1005700000911A0110911B0120911C0130911D0165
:10058000601B710B820B930B693C71058105910512
:1005900008F10E94570060931A0170931B01809329
:1005A0001C0190931D0180910501882309F47AC0F4
:1005B0008BB1877E8BB95C985B9A5C9A8BB18861B2
:1005C0008BB95B98809119018F5F883009F462C004
:1005D0008093190160E081E00E949D0061E082E06B
:1005E0000E949D0062E084E00E949D0063E088E03C
:1005F0000E949D0064E080E10E949D0065E080E231
:100600000E949D0066E080E40E949D0067E080E813
:100610000E949D0080911F0190911801891309C0CB
:1006200090912501992309F457C010920501109269
:10063000180190910401891309C080912501882334
:1006400009F44DC0B092050190920401E114F10447
:1006500009F48ECE0E9400008BCE23B130E002C0A0
:10066000359527959A95E2F720FFB6CE873011F49D
:10067000B09217018F5F883009F0A0CEADCE23B1C4
:10068000B8CE23B1C4CE8F5F3196883009F0ABCE9F
:1006900082E3C9CE1092190180911F018F5F809370
:1006A0001F0198CF5B985C9A8BB188618BB95C987D
:1006B0005B9A8BB1877E8BB9809119018F5F809394
:1006C0001901883009F086CF80911F0181508093F5
:1006D0001F01109219017ECF10921E01A8CF109217
:0806E0001E01B2CFF894FFCF18
:0E06E800630063000901050607010C0B0A09F7
:00000001FF
