:100000000C9461000C9473000C9473000C947300B6
:100010000C9473000C9473000C9473000C94730094
:100020000C9473000C9473000C9473000C94730084
:100030000C9473000C9473000C9473000C94730074
:100040000C9426010C9473000C9473000C947300B0
:100050000C9473000C9473000C9473000C94730054
:100060000C9473000C94730000000000240027001F
:100070002A0000000000250028002B0000000000DE
:1000800023002600290004040404040404040202DA
:100090000202020203030303030301020408102007
:1000A0004080010204081020010204081020000012
:1000B0000008000201000003040700000000000027
:1000C000000011241FBECFEFD8E0DEBFCDBF21E07E
:1000D000A0E0B1E001C01D92AD30B207E1F70E948F
:1000E00070010C9408030C940000833081F028F414
:1000F000813099F08230A9F008958730A9F08830D6
:10010000C9F08430B1F4809180008F7D03C080916C
:1001100080008F7780938000089584B58F7784BDA9
:10012000089584B58F7DFBCF8091B0008F77809349
:10013000B00008958091B0008F7DF9CFCF93DF9309
:10014000282F30E0F901E255FF4F8491F901E6567E
:10015000FF4FD491F901EA57FF4FC491CC23A1F08E
:1001600081110E947500EC2FF0E0EE0FFF1FE458A4
:10017000FF4FA591B491EC91ED2381E090E009F45B
:1001800080E0DF91CF91089580E090E0FACF1F9357
:10019000CF93DF93282F30E0F901E255FF4F849190
:1001A000F901E656FF4FD491F901EA57FF4FC49188
:1001B000CC23A9F0162F81110E947500EC2FF0E0DE
:1001C000EE0FFF1FEE58FF4FA591B4918FB7F89433
:1001D000EC91111108C0D095DE23DC938FBFDF9125
:1001E000CF911F910895DE2BF8CFCF93DF9390E04E
:1001F000FC01E656FF4F24918A579F4FFC018491E2
:100200008823D1F090E0880F991FFC01E859FF4F37
:10021000A591B491FC01EE58FF4FC591D4916111A5
:100220000EC09FB7F8948C91E22FE0958E238C93AB
:100230002881E223E8839FBFDF91CF9108958FB794
:10024000F894EC91E22BEC938FBFF6CF1F920F92B4
:100250000FB60F9211242F933F938F939F93AF93D9
:10026000BF938091090190910A01A0910B01B09177
:100270000C013091080123E0230F2D3758F501962A
:10028000A11DB11D209308018093090190930A01DB
:10029000A0930B01B0930C01809104019091050192
:1002A000A0910601B09107010196A11DB11D809397
:1002B000040190930501A0930601B0930701BF913B
:1002C000AF919F918F913F912F910F900FBE0F9003
:1002D0001F90189526E8230F0296A11DB11DD2CFBD
:1002E000789484B5826084BD84B5816084BD85B511
:1002F000826085BD85B5816085BD80916E0081601D
:1003000080936E00109281008091810082608093C2
:1003100081008091810081608093810080918000C4
:100320008160809380008091B10084608093B100EF
:100330008091B00081608093B00080917A008460E9
:1003400080937A0080917A00826080937A00809115
:100350007A00816080937A0080917A00806880932F
:100360007A001092C100C3E061E0C73008F460E099
:100370008C2F0E94F500CF5FCE30B1F761E08EE0A8
:100380000E94F50061E08FE00E94F50061E080E1ED
:100390000E94F50061E081E10E94F50061E082E1E8
:1003A0000E94F50061E083E10E94F50080E0E82E04
:1003B00080E0F82E83E00E949E00082F80930301C6
:1003C00084E00E949E00182F8093020185E00E9425
:1003D0009E00C82F8093010186E00E949E00D82FC6
:1003E0008093000161E0011106C0111104C0C11128
:1003F00002C0811160E087E00E94C70061E0011146
:1004000005C01D1719F0C11101C060E088E00E940D
:10041000C70061E001110CC0111106C0DD2341F0DD
:10042000C11106C060E004C0CC2399F0D111FACF0D
:100430008AE00E94C700002379F0CC23E1F0DD239D
:1004400009F4D7C01C1771F061E08BE00E94C7006F
:1004500019C0D111EDCFE6CF1111B7C0DD2359F08E
:100460001C1309C0112329F0CC2319F061E0DD230E
:1004700019F060E001C061E08BE00E94C70061E01C
:10048000002329F061E0112311F0D11160E08CE02C
:100490000E94C7000D1749F01C1307C0112319F063
:1004A00061E0DD2319F060E001C061E08EE00E94B0
:1004B000C700011108C0C1117DC0DD2321F061E03A
:1004C000111102C07DC061E08DE00E94C70061E0B3
:1004D000002339F0112329F0DD2319F0C11101C0E7
:1004E00060E089E00E94C700112309F477C0CC23A3
:1004F00009F468C061E0DD2351F0011108C060E03B
:1005000006C061E0C11103C061E01123C1F38FE0B7
:100510000E94C700111110C0CC23C9F061E080E136
:100520000E94C700112309F46CC0011118C061E0DA
:10053000CD17D1F060E018C0CC2319F0DD2309F409
:1005400062C0002341F061E0C111E9CF02C0011196
:1005500054C060E0E4CF61E0CC2309F3FACFC111CD
:10056000E9CF61E0DD2331F381E10E94C70061E062
:10057000002329F0D11103C0C11101C060E082E164
:100580000E94C700011106C0CC2311F0DD2321F029
:1005900061E006C0CC23D1F361E0011301C060E04B
:1005A00083E10E94C700E114F10409F403CF0E9423
:1005B000000000CF112321F061E0DD2309F484CF96
:1005C00060E082CF0111A0CF9ACFDD2309F44CCF98
:1005D00047CF61E08FE00E94C7009ECFDD23C9F3C3
:1005E00001118FCF60E08FE00E94C700C11196CF4C
:1005F000B0CF112309F43DCF39CF61E080E10E94F3
:10060000C70061E0B1CF61E080E10E94C7008DCFFB
:04061000F894FFCF8C
:00000001FF
