:100000000C9461000C9473000C9473000C947300B6
:100010000C9473000C9473000C9473000C94730094
:100020000C9473000C9473000C9473000C94730084
:100030000C9473000C9473000C9473000C94730074
:100040000C94F5000C9473000C9473000C947300E2
:100050000C9473000C9473000C9473000C94730054
:100060000C9473000C947300000000002300260021
:10007000290000000008000201000003040700003E
:1000800000000000000000000000250028002B00F8
:1000900000000000240027002A00040404040404D3
:1000A0000404020202020202030303030303010227
:1000B00004081020408001020408102001020408F6
:1000C000102011241FBECFEFD8E0DEBFCDBF21E04E
:1000D000A0E0B1E001C01D92AD30B207E1F70E948F
:1000E0003F010C9491020C940000833081F028F4BD
:1000F000813099F08230A9F008958730A9F08830D6
:10010000C9F08430B1F4809180008F7D03C080916C
:1001100080008F7780938000089584B58F7784BDA9
:10012000089584B58F7DFBCF8091B0008F77809349
:10013000B00008958091B0008F7DF9CFCF93DF9309
:10014000282F30E0F901EE58FF4F8491F901E25574
:10015000FF4FD491F901E656FF4FC491CC23A1F093
:1001600081110E947500EC2FF0E0EE0FFF1FE8599F
:10017000FF4FA591B491EC91ED2381E090E009F45B
:1001800080E0DF91CF91089580E090E0FACF1F9357
:10019000CF93DF93282F30E0F901EE58FF4F849181
:1001A000F901E255FF4FD491F901E656FF4FC49192
:1001B000CC23A9F0162F81110E947500EC2FF0E0DE
:1001C000EE0FFF1FEA57FF4FA591B4918FB7F89438
:1001D000EC91111108C0D095DE23DC938FBFDF9125
:1001E000CF911F910895DE2BF8CF1F920F920FB67B
:1001F0000F9211242F933F938F939F93AF93BF93AD
:100200008091090190910A01A0910B01B0910C011C
:100210003091080123E0230F2D3758F50196A11DD9
:10022000B11D209308018093090190930A01A093C6
:100230000B01B0930C018091040190910501A091F4
:100240000601B09107010196A11DB11D8093040123
:1002500090930501A0930601B0930701BF91AF9160
:100260009F918F913F912F910F900FBE0F901F90F4
:10027000189526E8230F0296A11DB11DD2CF7894C0
:1002800084B5826084BD84B5816084BD85B582609B
:1002900085BD85B5816085BD80916E00816080934C
:1002A0006E001092810080918100826080938100B5
:1002B00080918100816080938100809180008160C5
:1002C000809380008091B10084608093B100809120
:1002D000B00081608093B00080917A008460809348
:1002E0007A0080917A00826080937A0080917A000F
:1002F000816080937A0080917A00806880937A0090
:100300001092C10042E050E0FA01E255FF4F249103
:10031000FA01E656FF4F84918823D1F090E0880FD0
:10032000991FFC01E057FF4FA591B491FC01EA57DA
:10033000FF4FC591D4914930B8F19FB7F8948C9193
:10034000E22FE0958E238C932881E223E8839FBFE0
:100350004F5F5F4F4D305105B9F680E0E82E80E0E9
:10036000F82E89E00E949E00182F809303018AE0F6
:100370000E949E00082F809302018BE00E949E0045
:10038000C82F809301018CE00E949E00D82F80939B
:100390000001011110C0882351F161E0111124C046
:1003A000C11110C060E00EC08FB7F894EC91E22B41
:1003B000EC938FBFCDCFC1111AC0112389F061E03A
:1003C000D111F0CF82E00E94C700111112C00023AA
:1003D000C1F161E0C11117C0DD23B9F060E015C0C3
:1003E00061E0D111EFCFDECFCC2361F3DBCF61E051
:1003F000E9CF011104C0CC2321F1DD2311F161E02B
:10040000CD1303C0EBCFDD2349F383E00E94C70087
:10041000111119C0CC2301F1D1111EC061E00023DC
:10042000C9F084E00E94C70001114DC0C11116C07F
:10043000112329F061E0D11112C0002381F060E0A6
:100440000EC061E0E2CF002339F0C11103C061E0CA
:10045000D111E7CF60E0E5CF61E0E3CF61E085E077
:100460000E94C700002341F0C11119C0D11108C07A
:1004700061E0111106C016C0DD2311F0CC23C1F3D9
:1004800061E086E00E94C700011127C0DD2359F119
:10049000CC2319F061E0111127C060E025C061E0B4
:1004A000DD2379F360E0EDCF002391F161E0C1112C
:1004B0002FC088E00E94C700E114F10409F451CF75
:1004C0000E9400004ECF111125C0CC2339F2DD234C
:1004D00029F261E01111C3CFB2CF111104C0CC23B6
:1004E000E1F2D111D7CF61E087E00E94C700CC23B1
:1004F00011F0002341F0DD2321F01123A9F2CC23D8
:1005000061F061E0D6CF112319F061E0D111D1CFB4
:1005100060E0CFCFC111DBCF8DCF61E0002349F286
:06052000F7CFF894FFCFB5
:00000001FF
