:100000000C9457000C9474000C9474000C947400BD
:100010000C9474000C9474000C9474000C94740090
:100020000C9474000C9474000C9474000C94740080
:100030000C9474000C9474000C9474000C94740070
:100040000C94C0000C9474000C9474000C94740014
:100050000C9474000C9474000C9474000C94740050
:100060000C9474000C94740000000000230026001F
:10007000290004040404040404040202020202022B
:10008000030303030303010204081020408001025C
:1000900004081020010204081020000000080002DB
:1000A000010000030407000000000000000011240C
:1000B0001FBECFEFD8E0DEBFCDBF11E0A0E0B1E0C2
:1000C000E0E2F3E002C005900D92A032B107D9F74B
:1000D00021E0A0E2B1E001C01D92A932B207E1F730
:1000E0000E940A010C948E010C94000090E0FC0127
:1000F000E656FF4F2491FC01EA57FF4F3491FC0173
:10010000EE58FF4FE491EE23C1F1222339F0233062
:10011000E9F090F4213001F1223011F1F0E0EE0F1E
:10012000FF1FE859FF4FA591B491EC91E32381E0C3
:1001300090E029F580E008952730A9F02830C9F033
:10014000243061F7809180008F7D03C08091800012
:100150008F7780938000E2CF84B58F7784BDDECF28
:1001600084B58F7DFBCF8091B0008F778093B000F6
:10017000D5CF8091B0008F7DF9CF80E090E00895D9
:100180001F920F920FB60F9211242F933F938F93CC
:100190009F93AF93BF938091250190912601A091E9
:1001A0002701B09128013091240123E0230F2D373E
:1001B00058F50196A11DB11D2093240180932501BE
:1001C00090932601A0932701B093280180912001EC
:1001D00090912101A0912201B09123010196A11DCE
:1001E000B11D8093200190932101A0932201B0932F
:1001F0002301BF91AF919F918F913F912F910F90CC
:100200000FBE0F901F90189526E8230F0296A11D90
:10021000B11DD2CF789484B5826084BD84B58160ED
:1002200084BD85B5826085BD85B5816085BD8091C1
:100230006E00816080936E00109281008091810039
:100240008260809381008091810081608093810031
:10025000809180008160809380008091B1008460F3
:100260008093B1008091B00081608093B000809154
:100270007A00846080937A0080917A008260809313
:100280007A0080917A00816080937A0080917A0070
:10029000806880937A001092C1008FE78AB980E16C
:1002A00084B98FE085B900E010E088E00E94760014
:1002B000C1E0D0E0892B11F0D0E0C0E089E00E94DD
:1002C0007600892B11F190E080E0C82BD92B8AE0D1
:1002D0000E947600892BE1F090E080E0C82BD92BBA
:1002E0008BE00E947600892BB1F090E080E0C82B73
:1002F000D92BCC0FDD1FC050DF4F88818BB9011582
:10030000110599F20E940000D0CF82E090E0DDCF8D
:1003100084E090E0E3CF88E090E0E9CFF894FFCF6D
:100320003F0006005B004F0066006D007D00070087
:100330007F006F0077007C0039005E00790071005B
:00000001FF
